{
  "_format": "hh-sol-artifact-1",
  "contractName": "ERC20Swap",
  "sourceName": "contracts/ERC20Swap.sol",
  "abi": [
    {
      "inputs": [
        {
          "internalType": "address",
          "name": "token",
          "type": "address"
        },
        {
          "internalType": "uint256",
          "name": "minAmount",
          "type": "uint256"
        }
      ],
      "name": "swapEtherToToken",
      "outputs": [
        {
          "internalType": "uint256",
          "name": "",
          "type": "uint256"
        }
      ],
      "stateMutability": "payable",
      "type": "function"
    }
  ],
  "bytecode": "0x608060405234801561001057600080fd5b506104b0806100206000396000f3fe60806040526004361061001e5760003560e01c80637a2a045614610023575b600080fd5b61003d60048036038101906100389190610219565b610053565b60405161004a9190610268565b60405180910390f35b6000803411610097576040517f08c379a000000000000000000000000000000000000000000000000000000000815260040161008e906102e0565b60405180910390fd5b6000349050600084905060006005836100b0919061032f565b9050848110156100f5576040517f08c379a00000000000000000000000000000000000000000000000000000000081526004016100ec906103bd565b60405180910390fd5b8173ffffffffffffffffffffffffffffffffffffffff1663a9059cbb33836040518363ffffffff1660e01b81526004016101309291906103ec565b6020604051808303816000875af115801561014f573d6000803e3d6000fd5b505050506040513d601f19601f82011682018060405250810190610173919061044d565b5080935050505092915050565b600080fd5b600073ffffffffffffffffffffffffffffffffffffffff82169050919050565b60006101b082610185565b9050919050565b6101c0816101a5565b81146101cb57600080fd5b50565b6000813590506101dd816101b7565b92915050565b6000819050919050565b6101f6816101e3565b811461020157600080fd5b50565b600081359050610213816101ed565b92915050565b600080604083850312156102305761022f610180565b5b600061023e858286016101ce565b925050602061024f85828601610204565b9150509250929050565b610262816101e3565b82525050565b600060208201905061027d6000830184610259565b92915050565b600082825260208201905092915050565b7f4e6f2045746865722073656e7400000000000000000000000000000000000000600082015250565b60006102ca600d83610283565b91506102d582610294565b602082019050919050565b600060208201905081810360008301526102f9816102bd565b9050919050565b7f4e487b7100000000000000000000000000000000000000000000000000000000600052601160045260246000fd5b600061033a826101e3565b9150610345836101e3565b9250828202610353816101e3565b9150828204841483151761036a57610369610300565b5b5092915050565b7f496e73756666696369656e7420746f6b656e20616d6f756e7400000000000000600082015250565b60006103a7601983610283565b91506103b282610371565b602082019050919050565b600060208201905081810360008301526103d68161039a565b9050919050565b6103e6816101a5565b82525050565b600060408201905061040160008301856103dd565b61040e6020830184610259565b9392505050565b60008115159050919050565b61042a81610415565b811461043557600080fd5b50565b60008151905061044781610421565b92915050565b60006020828403121561046357610462610180565b5b600061047184828501610438565b9150509291505056fea2646970667358221220799a263912e34d919005e7bf9e4f4f485c43f1564175bf43f4a5c49e3a85246b64736f6c63430008120033",
  "linkReferences": {},
  "deployedLinkReferences": {}
}